{
    "_format": "hh-sol-artifact-1",
    "contractName": "StreamNft",
    "sourceName": "contracts/triviaStream.sol",
    "abi": [
        {
            "inputs": [],
            "stateMutability": "nonpayable",
            "type": "constructor"
        },
        {
            "anonymous": false,
            "inputs": [
                {
                    "indexed": true,
                    "internalType": "address",
                    "name": "owner",
                    "type": "address"
                },
                {
                    "indexed": true,
                    "internalType": "address",
                    "name": "approved",
                    "type": "address"
                },
                {
                    "indexed": true,
                    "internalType": "uint256",
                    "name": "tokenId",
                    "type": "uint256"
                }
            ],
            "name": "Approval",
            "type": "event"
        },
        {
            "anonymous": false,
            "inputs": [
                {
                    "indexed": true,
                    "internalType": "address",
                    "name": "owner",
                    "type": "address"
                },
                {
                    "indexed": true,
                    "internalType": "address",
                    "name": "operator",
                    "type": "address"
                },
                {
                    "indexed": false,
                    "internalType": "bool",
                    "name": "approved",
                    "type": "bool"
                }
            ],
            "name": "ApprovalForAll",
            "type": "event"
        },
        {
            "anonymous": false,
            "inputs": [
                {
                    "indexed": true,
                    "internalType": "address",
                    "name": "from",
                    "type": "address"
                },
                {
                    "indexed": true,
                    "internalType": "address",
                    "name": "to",
                    "type": "address"
                },
                {
                    "indexed": true,
                    "internalType": "uint256",
                    "name": "tokenId",
                    "type": "uint256"
                }
            ],
            "name": "Transfer",
            "type": "event"
        },
        {
            "anonymous": false,
            "inputs": [
                {
                    "indexed": false,
                    "internalType": "uint256",
                    "name": "id",
                    "type": "uint256"
                },
                {
                    "indexed": false,
                    "internalType": "string",
                    "name": "caption",
                    "type": "string"
                },
                {
                    "indexed": false,
                    "internalType": "string",
                    "name": "url",
                    "type": "string"
                },
                {
                    "indexed": false,
                    "internalType": "uint256",
                    "name": "likes",
                    "type": "uint256"
                },
                {
                    "indexed": false,
                    "internalType": "uint256",
                    "name": "dislikes",
                    "type": "uint256"
                },
                {
                    "indexed": false,
                    "internalType": "address",
                    "name": "owner",
                    "type": "address"
                }
            ],
            "name": "VideoCreated",
            "type": "event"
        },
        {
            "anonymous": false,
            "inputs": [
                {
                    "indexed": false,
                    "internalType": "uint256",
                    "name": "id",
                    "type": "uint256"
                },
                {
                    "indexed": false,
                    "internalType": "uint256",
                    "name": "dislikes",
                    "type": "uint256"
                }
            ],
            "name": "VideoDisliked",
            "type": "event"
        },
        {
            "anonymous": false,
            "inputs": [
                {
                    "indexed": false,
                    "internalType": "uint256",
                    "name": "id",
                    "type": "uint256"
                },
                {
                    "indexed": false,
                    "internalType": "uint256",
                    "name": "likes",
                    "type": "uint256"
                }
            ],
            "name": "VideoLiked",
            "type": "event"
        },
        {
            "inputs": [],
            "name": "TOKEN_IMAGE_URI",
            "outputs": [
                {
                    "internalType": "string",
                    "name": "",
                    "type": "string"
                }
            ],
            "stateMutability": "view",
            "type": "function"
        },
        {
            "inputs": [
                {
                    "internalType": "address",
                    "name": "to",
                    "type": "address"
                },
                {
                    "internalType": "uint256",
                    "name": "tokenId",
                    "type": "uint256"
                }
            ],
            "name": "approve",
            "outputs": [],
            "stateMutability": "nonpayable",
            "type": "function"
        },
        {
            "inputs": [
                {
                    "internalType": "address",
                    "name": "owner",
                    "type": "address"
                }
            ],
            "name": "balanceOf",
            "outputs": [
                {
                    "internalType": "uint256",
                    "name": "",
                    "type": "uint256"
                }
            ],
            "stateMutability": "view",
            "type": "function"
        },
        {
            "inputs": [
                {
                    "internalType": "address",
                    "name": "",
                    "type": "address"
                }
            ],
            "name": "closeFriends",
            "outputs": [
                {
                    "internalType": "bool",
                    "name": "",
                    "type": "bool"
                }
            ],
            "stateMutability": "view",
            "type": "function"
        },
        {
            "inputs": [
                {
                    "internalType": "string",
                    "name": "_caption",
                    "type": "string"
                },
                {
                    "internalType": "string",
                    "name": "_url",
                    "type": "string"
                }
            ],
            "name": "createVideo",
            "outputs": [],
            "stateMutability": "nonpayable",
            "type": "function"
        },
        {
            "inputs": [
                {
                    "internalType": "uint256",
                    "name": "_id",
                    "type": "uint256"
                }
            ],
            "name": "dislikeVideo",
            "outputs": [],
            "stateMutability": "nonpayable",
            "type": "function"
        },
        {
            "inputs": [
                {
                    "internalType": "uint256",
                    "name": "tokenId",
                    "type": "uint256"
                }
            ],
            "name": "getApproved",
            "outputs": [
                {
                    "internalType": "address",
                    "name": "",
                    "type": "address"
                }
            ],
            "stateMutability": "view",
            "type": "function"
        },
        {
            "inputs": [
                {
                    "internalType": "uint256",
                    "name": "_id",
                    "type": "uint256"
                }
            ],
            "name": "getLikes",
            "outputs": [
                {
                    "internalType": "uint256",
                    "name": "",
                    "type": "uint256"
                }
            ],
            "stateMutability": "view",
            "type": "function"
        },
        {
            "inputs": [],
            "name": "getTokenCounter",
            "outputs": [
                {
                    "internalType": "uint256",
                    "name": "",
                    "type": "uint256"
                }
            ],
            "stateMutability": "view",
            "type": "function"
        },
        {
            "inputs": [],
            "name": "getVideoCount",
            "outputs": [
                {
                    "internalType": "uint256",
                    "name": "",
                    "type": "uint256"
                }
            ],
            "stateMutability": "view",
            "type": "function"
        },
        {
            "inputs": [],
            "name": "getVideos",
            "outputs": [
                {
                    "components": [
                        {
                            "internalType": "string",
                            "name": "caption",
                            "type": "string"
                        },
                        {
                            "internalType": "string",
                            "name": "url",
                            "type": "string"
                        },
                        {
                            "internalType": "uint256",
                            "name": "likes",
                            "type": "uint256"
                        },
                        {
                            "internalType": "uint256",
                            "name": "dislikes",
                            "type": "uint256"
                        },
                        {
                            "internalType": "address",
                            "name": "owner",
                            "type": "address"
                        },
                        {
                            "internalType": "address[]",
                            "name": "likedUsers",
                            "type": "address[]"
                        }
                    ],
                    "internalType": "struct StreamNft.Video[]",
                    "name": "",
                    "type": "tuple[]"
                }
            ],
            "stateMutability": "view",
            "type": "function"
        },
        {
            "inputs": [
                {
                    "internalType": "address",
                    "name": "addr",
                    "type": "address"
                }
            ],
            "name": "hasNft",
            "outputs": [
                {
                    "internalType": "bool",
                    "name": "",
                    "type": "bool"
                }
            ],
            "stateMutability": "view",
            "type": "function"
        },
        {
            "inputs": [
                {
                    "internalType": "address",
                    "name": "owner",
                    "type": "address"
                },
                {
                    "internalType": "address",
                    "name": "operator",
                    "type": "address"
                }
            ],
            "name": "isApprovedForAll",
            "outputs": [
                {
                    "internalType": "bool",
                    "name": "",
                    "type": "bool"
                }
            ],
            "stateMutability": "view",
            "type": "function"
        },
        {
            "inputs": [
                {
                    "internalType": "uint256",
                    "name": "_id",
                    "type": "uint256"
                }
            ],
            "name": "likeVideo",
            "outputs": [],
            "stateMutability": "nonpayable",
            "type": "function"
        },
        {
            "inputs": [
                {
                    "internalType": "address",
                    "name": "",
                    "type": "address"
                },
                {
                    "internalType": "uint256",
                    "name": "",
                    "type": "uint256"
                }
            ],
            "name": "likedUsers",
            "outputs": [
                {
                    "internalType": "bool",
                    "name": "",
                    "type": "bool"
                }
            ],
            "stateMutability": "view",
            "type": "function"
        },
        {
            "inputs": [
                {
                    "internalType": "uint256",
                    "name": "",
                    "type": "uint256"
                }
            ],
            "name": "likes",
            "outputs": [
                {
                    "internalType": "uint256",
                    "name": "",
                    "type": "uint256"
                }
            ],
            "stateMutability": "view",
            "type": "function"
        },
        {
            "inputs": [
                {
                    "internalType": "address",
                    "name": "to",
                    "type": "address"
                }
            ],
            "name": "makeCloseFriend",
            "outputs": [],
            "stateMutability": "nonpayable",
            "type": "function"
        },
        {
            "inputs": [
                {
                    "internalType": "uint256",
                    "name": "value",
                    "type": "uint256"
                }
            ],
            "name": "mintNft",
            "outputs": [],
            "stateMutability": "nonpayable",
            "type": "function"
        },
        {
            "inputs": [],
            "name": "name",
            "outputs": [
                {
                    "internalType": "string",
                    "name": "",
                    "type": "string"
                }
            ],
            "stateMutability": "view",
            "type": "function"
        },
        {
            "inputs": [
                {
                    "internalType": "uint256",
                    "name": "tokenId",
                    "type": "uint256"
                }
            ],
            "name": "ownerOf",
            "outputs": [
                {
                    "internalType": "address",
                    "name": "",
                    "type": "address"
                }
            ],
            "stateMutability": "view",
            "type": "function"
        },
        {
            "inputs": [
                {
                    "internalType": "address",
                    "name": "",
                    "type": "address"
                }
            ],
            "name": "s_hasNft",
            "outputs": [
                {
                    "internalType": "bool",
                    "name": "",
                    "type": "bool"
                }
            ],
            "stateMutability": "view",
            "type": "function"
        },
        {
            "inputs": [
                {
                    "internalType": "address",
                    "name": "from",
                    "type": "address"
                },
                {
                    "internalType": "address",
                    "name": "to",
                    "type": "address"
                },
                {
                    "internalType": "uint256",
                    "name": "tokenId",
                    "type": "uint256"
                }
            ],
            "name": "safeTransferFrom",
            "outputs": [],
            "stateMutability": "nonpayable",
            "type": "function"
        },
        {
            "inputs": [
                {
                    "internalType": "address",
                    "name": "from",
                    "type": "address"
                },
                {
                    "internalType": "address",
                    "name": "to",
                    "type": "address"
                },
                {
                    "internalType": "uint256",
                    "name": "tokenId",
                    "type": "uint256"
                },
                {
                    "internalType": "bytes",
                    "name": "data",
                    "type": "bytes"
                }
            ],
            "name": "safeTransferFrom",
            "outputs": [],
            "stateMutability": "nonpayable",
            "type": "function"
        },
        {
            "inputs": [
                {
                    "internalType": "address",
                    "name": "operator",
                    "type": "address"
                },
                {
                    "internalType": "bool",
                    "name": "approved",
                    "type": "bool"
                }
            ],
            "name": "setApprovalForAll",
            "outputs": [],
            "stateMutability": "nonpayable",
            "type": "function"
        },
        {
            "inputs": [
                {
                    "internalType": "bytes4",
                    "name": "interfaceId",
                    "type": "bytes4"
                }
            ],
            "name": "supportsInterface",
            "outputs": [
                {
                    "internalType": "bool",
                    "name": "",
                    "type": "bool"
                }
            ],
            "stateMutability": "view",
            "type": "function"
        },
        {
            "inputs": [],
            "name": "symbol",
            "outputs": [
                {
                    "internalType": "string",
                    "name": "",
                    "type": "string"
                }
            ],
            "stateMutability": "view",
            "type": "function"
        },
        {
            "inputs": [
                {
                    "internalType": "uint256",
                    "name": "",
                    "type": "uint256"
                }
            ],
            "name": "tokenURI",
            "outputs": [
                {
                    "internalType": "string",
                    "name": "",
                    "type": "string"
                }
            ],
            "stateMutability": "view",
            "type": "function"
        },
        {
            "inputs": [
                {
                    "internalType": "address",
                    "name": "from",
                    "type": "address"
                },
                {
                    "internalType": "address",
                    "name": "to",
                    "type": "address"
                },
                {
                    "internalType": "uint256",
                    "name": "tokenId",
                    "type": "uint256"
                }
            ],
            "name": "transferFrom",
            "outputs": [],
            "stateMutability": "nonpayable",
            "type": "function"
        },
        {
            "inputs": [],
            "name": "videoCount",
            "outputs": [
                {
                    "internalType": "uint256",
                    "name": "",
                    "type": "uint256"
                }
            ],
            "stateMutability": "view",
            "type": "function"
        },
        {
            "inputs": [
                {
                    "internalType": "uint256",
                    "name": "",
                    "type": "uint256"
                }
            ],
            "name": "videos",
            "outputs": [
                {
                    "internalType": "string",
                    "name": "caption",
                    "type": "string"
                },
                {
                    "internalType": "string",
                    "name": "url",
                    "type": "string"
                },
                {
                    "internalType": "uint256",
                    "name": "likes",
                    "type": "uint256"
                },
                {
                    "internalType": "uint256",
                    "name": "dislikes",
                    "type": "uint256"
                },
                {
                    "internalType": "address",
                    "name": "owner",
                    "type": "address"
                }
            ],
            "stateMutability": "view",
            "type": "function"
        }
    ],
    "bytecode": "0x60806040523480156200001157600080fd5b506040518060400160405280600c81526020017f53747265616d54726976696100000000000000000000000000000000000000008152506040518060400160405280600781526020017f6c6576656c20310000000000000000000000000000000000000000000000000081525081600090805190602001906200009692919062000101565b508060019080519060200190620000af92919062000101565b505050600060068190555033600860006101000a81548173ffffffffffffffffffffffffffffffffffffffff021916908373ffffffffffffffffffffffffffffffffffffffff16021790555062000216565b8280546200010f90620001b1565b90600052602060002090601f0160209004810192826200013357600085556200017f565b82601f106200014e57805160ff19168380011785556200017f565b828001600101855582156200017f579182015b828111156200017e57825182559160200191906001019062000161565b5b5090506200018e919062000192565b5090565b5b80821115620001ad57600081600090555060010162000193565b5090565b60006002820490506001821680620001ca57607f821691505b60208210811415620001e157620001e0620001e7565b5b50919050565b7f4e487b7100000000000000000000000000000000000000000000000000000000600052602260045260246000fd5b6144f080620002266000396000f3fe608060405234801561001057600080fd5b50600436106101da5760003560e01c80636e02007d11610104578063a286c0b9116100a2578063e31c61e411610071578063e31c61e414610579578063e6821bf5146105a9578063e985e9c5146105dd578063f5d18d351461060d576101da565b8063a286c0b9146104f1578063b88d4fde1461050f578063c61b5f4c1461052b578063c87b56dd14610549576101da565b80637e9dffe6116100de5780637e9dffe61461045757806395d89b4114610487578063a209081e146104a5578063a22cb465146104d5576101da565b80636e02007d146103ed57806370a082311461040b5780637d0d1e9e1461043b576101da565b806325c9900b1161017c5780635dbe700f1161014b5780635dbe700f146103655780636352211e1461038357806368f2d165146103b35780636cbb855d146103d1576101da565b806325c9900b146102cd57806327260d5c146102fd57806342842e0e146103195780634ed7ff6314610335576101da565b8063081812fc116101b8578063081812fc14610249578063095ea7b3146102795780630d730acc1461029557806323b872dd146102b1576101da565b806301ffc9a7146101df57806306fdde031461020f5780630746bfe51461022d575b600080fd5b6101f960048036038101906101f49190612f90565b61063d565b60405161020691906136f1565b60405180910390f35b61021761071f565b604051610224919061370c565b60405180910390f35b61024760048036038101906102429190613062565b6107b1565b005b610263600480360381019061025e9190613062565b610a36565b6040516102709190613668565b60405180910390f35b610293600480360381019061028e9190612f50565b610a7c565b005b6102af60048036038101906102aa9190613062565b610b94565b005b6102cb60048036038101906102c69190612e3a565b610c7a565b005b6102e760048036038101906102e29190612dcd565b610cda565b6040516102f491906136f1565b60405180910390f35b61031760048036038101906103129190613062565b610cfa565b005b610333600480360381019061032e9190612e3a565b610fe4565b005b61034f600480360381019061034a9190612dcd565b611004565b60405161035c91906136f1565b60405180910390f35b61036d61105a565b60405161037a919061370c565b60405180910390f35b61039d60048036038101906103989190613062565b611076565b6040516103aa9190613668565b60405180910390f35b6103bb6110fd565b6040516103c891906136cf565b60405180910390f35b6103eb60048036038101906103e69190612fea565b6113e5565b005b6103f561159d565b604051610402919061396f565b60405180910390f35b61042560048036038101906104209190612dcd565b6115a7565b604051610432919061396f565b60405180910390f35b61045560048036038101906104509190612dcd565b61165f565b005b610471600480360381019061046c9190613062565b611714565b60405161047e919061396f565b60405180910390f35b61048f61172c565b60405161049c919061370c565b60405180910390f35b6104bf60048036038101906104ba9190613062565b6117be565b6040516104cc919061396f565b60405180910390f35b6104ef60048036038101906104ea9190612f10565b6117db565b005b6104f96117f1565b604051610506919061396f565b60405180910390f35b61052960048036038101906105249190612e8d565b6117fb565b005b61053361185d565b604051610540919061396f565b60405180910390f35b610563600480360381019061055e9190613062565b611863565b604051610570919061370c565b60405180910390f35b610593600480360381019061058e9190612f50565b6118dd565b6040516105a091906136f1565b60405180910390f35b6105c360048036038101906105be9190613062565b61190c565b6040516105d495949392919061372e565b60405180910390f35b6105f760048036038101906105f29190612dfa565b611a72565b60405161060491906136f1565b60405180910390f35b61062760048036038101906106229190612dcd565b611b06565b60405161063491906136f1565b60405180910390f35b60007f80ac58cd000000000000000000000000000000000000000000000000000000007bffffffffffffffffffffffffffffffffffffffffffffffffffffffff1916827bffffffffffffffffffffffffffffffffffffffffffffffffffffffff1916148061070857507f5b5e139f000000000000000000000000000000000000000000000000000000007bffffffffffffffffffffffffffffffffffffffffffffffffffffffff1916827bffffffffffffffffffffffffffffffffffffffffffffffffffffffff1916145b80610718575061071782611b26565b5b9050919050565b60606000805461072e90613d4c565b80601f016020809104026020016040519081016040528092919081815260200182805461075a90613d4c565b80156107a75780601f1061077c576101008083540402835291602001916107a7565b820191906000526020600020905b81548152906001019060200180831161078a57829003601f168201915b5050505050905090565b60011515600b60003373ffffffffffffffffffffffffffffffffffffffff1673ffffffffffffffffffffffffffffffffffffffff168152602001908152602001600020600083815260200190815260200160002060009054906101000a900460ff16151514610855576040517f08c379a000000000000000000000000000000000000000000000000000000000815260040161084c9061394f565b60405180910390fd5b6000600d600083815260200190815260200160002090506001600c60008481526020019081526020016000205461088c9190613c50565b600c6000848152602001908152602001600020819055506000600b60003373ffffffffffffffffffffffffffffffffffffffff1673ffffffffffffffffffffffffffffffffffffffff168152602001908152602001600020600084815260200190815260200160002060006101000a81548160ff02191690831515021790555080600d6000848152602001908152602001600020600082018160000190805461093490613d4c565b61093f929190612a2c565b50600182018160010190805461095490613d4c565b61095f929190612a2c565b5060028201548160020155600382015481600301556004820160009054906101000a900473ffffffffffffffffffffffffffffffffffffffff168160040160006101000a81548173ffffffffffffffffffffffffffffffffffffffff021916908373ffffffffffffffffffffffffffffffffffffffff16021790555060058201816005019080546109f1929190612ab9565b509050507fb2c070dc9cfa170a045526a2b9a0378c83f23ab1f2634cfa5627b9006f07b34c828260030154604051610a2a9291906139f9565b60405180910390a15050565b6000610a4182611b90565b6004600083815260200190815260200160002060009054906101000a900473ffffffffffffffffffffffffffffffffffffffff169050919050565b6000610a8782611076565b90508073ffffffffffffffffffffffffffffffffffffffff168373ffffffffffffffffffffffffffffffffffffffff161415610af8576040517f08c379a0000000000000000000000000000000000000000000000000000000008152600401610aef906138ef565b60405180910390fd5b8073ffffffffffffffffffffffffffffffffffffffff16610b17611bdb565b73ffffffffffffffffffffffffffffffffffffffff161480610b465750610b4581610b40611bdb565b611a72565b5b610b85576040517f08c379a0000000000000000000000000000000000000000000000000000000008152600401610b7c9061390f565b60405180910390fd5b610b8f8383611be3565b505050565b600a60003373ffffffffffffffffffffffffffffffffffffffff1673ffffffffffffffffffffffffffffffffffffffff16815260200190815260200160002060009054906101000a900460ff16610c20576040517f08c379a0000000000000000000000000000000000000000000000000000000008152600401610c179061388f565b60405180910390fd5b6004816002610c2f9190613b6f565b14610c6f576040517f08c379a0000000000000000000000000000000000000000000000000000000008152600401610c66906137cf565b60405180910390fd5b610c77611c9c565b50565b610c8b610c85611bdb565b82611d17565b610cca576040517f08c379a0000000000000000000000000000000000000000000000000000000008152600401610cc19061378f565b60405180910390fd5b610cd5838383611dac565b505050565b600a6020528060005260406000206000915054906101000a900460ff1681565b6000600d6000838152602001908152602001600020905060001515600b60003373ffffffffffffffffffffffffffffffffffffffff1673ffffffffffffffffffffffffffffffffffffffff168152602001908152602001600020600084815260200190815260200160002060009054906101000a900460ff16151514610db5576040517f08c379a0000000000000000000000000000000000000000000000000000000008152600401610dac9061392f565b60405180910390fd5b6001600c600084815260200190815260200160002054610dd59190613b6f565b600c60008481526020019081526020016000208190555080600501339080600181540180825580915050600190039060005260206000200160009091909190916101000a81548173ffffffffffffffffffffffffffffffffffffffff021916908373ffffffffffffffffffffffffffffffffffffffff1602179055506001600b60003373ffffffffffffffffffffffffffffffffffffffff1673ffffffffffffffffffffffffffffffffffffffff168152602001908152602001600020600084815260200190815260200160002060006101000a81548160ff02191690831515021790555080600d60008481526020019081526020016000206000820181600001908054610ee290613d4c565b610eed929190612a2c565b506001820181600101908054610f0290613d4c565b610f0d929190612a2c565b5060028201548160020155600382015481600301556004820160009054906101000a900473ffffffffffffffffffffffffffffffffffffffff168160040160006101000a81548173ffffffffffffffffffffffffffffffffffffffff021916908373ffffffffffffffffffffffffffffffffffffffff1602179055506005820181600501908054610f9f929190612ab9565b509050507f2d800dd6b1c8ddd03a0f158acfe1f793fb8cd08ade2f32715a03a60dff786cc8828260020154604051610fd89291906139f9565b60405180910390a15050565b610fff838383604051806020016040528060008152506117fb565b505050565b6000600760008373ffffffffffffffffffffffffffffffffffffffff1673ffffffffffffffffffffffffffffffffffffffff16815260200190815260200160002060009054906101000a900460ff169050919050565b6040518060800160405280604381526020016144386043913981565b600080611082836120a6565b9050600073ffffffffffffffffffffffffffffffffffffffff168173ffffffffffffffffffffffffffffffffffffffff1614156110f4576040517f08c379a00000000000000000000000000000000000000000000000000000000081526004016110eb906138cf565b60405180910390fd5b80915050919050565b6060600060095467ffffffffffffffff81111561111d5761111c613eb4565b5b60405190808252806020026020018201604052801561115657816020015b611143612b0b565b81526020019060019003908161113b5790505b50905060005b6009548110156113dd57600d60006001836111779190613b6f565b81526020019081526020016000206040518060c00160405290816000820180546111a090613d4c565b80601f01602080910402602001604051908101604052809291908181526020018280546111cc90613d4c565b80156112195780601f106111ee57610100808354040283529160200191611219565b820191906000526020600020905b8154815290600101906020018083116111fc57829003601f168201915b5050505050815260200160018201805461123290613d4c565b80601f016020809104026020016040519081016040528092919081815260200182805461125e90613d4c565b80156112ab5780601f10611280576101008083540402835291602001916112ab565b820191906000526020600020905b81548152906001019060200180831161128e57829003601f168201915b5050505050815260200160028201548152602001600382015481526020016004820160009054906101000a900473ffffffffffffffffffffffffffffffffffffffff1673ffffffffffffffffffffffffffffffffffffffff1673ffffffffffffffffffffffffffffffffffffffff168152602001600582018054806020026020016040519081016040528092919081815260200182805480156113a357602002820191906000526020600020905b8160009054906101000a900473ffffffffffffffffffffffffffffffffffffffff1673ffffffffffffffffffffffffffffffffffffffff1681526020019060010190808311611359575b5050505050815250508282815181106113bf576113be613e85565b5b602002602001018190525080806113d590613daf565b91505061115c565b508091505090565b600960008154809291906113f890613daf565b91905055506040518060c0016040528083815260200182815260200160008152602001600081526020013373ffffffffffffffffffffffffffffffffffffffff168152602001600067ffffffffffffffff81111561145957611458613eb4565b5b6040519080825280602002602001820160405280156114875781602001602082028036833780820191505090505b50815250600d6000600954815260200190815260200160002060008201518160000190805190602001906114bc929190612b57565b5060208201518160010190805190602001906114d9929190612b57565b50604082015181600201556060820151816003015560808201518160040160006101000a81548173ffffffffffffffffffffffffffffffffffffffff021916908373ffffffffffffffffffffffffffffffffffffffff16021790555060a0820151816005019080519060200190611551929190612bdd565b509050507ff90637f53a052b913d9865c8bb1aae7a6d5b1a3b0a0de2dc7ad0cc9d1c906b4e6009548383600080336040516115919695949392919061398a565b60405180910390a15050565b6000600654905090565b60008073ffffffffffffffffffffffffffffffffffffffff168273ffffffffffffffffffffffffffffffffffffffff161415611618576040517f08c379a000000000000000000000000000000000000000000000000000000000815260040161160f9061386f565b60405180910390fd5b600360008373ffffffffffffffffffffffffffffffffffffffff1673ffffffffffffffffffffffffffffffffffffffff168152602001908152602001600020549050919050565b600860009054906101000a900473ffffffffffffffffffffffffffffffffffffffff1673ffffffffffffffffffffffffffffffffffffffff163373ffffffffffffffffffffffffffffffffffffffff16146116b957600080fd5b6001600a60008373ffffffffffffffffffffffffffffffffffffffff1673ffffffffffffffffffffffffffffffffffffffff16815260200190815260200160002060006101000a81548160ff02191690831515021790555050565b600c6020528060005260406000206000915090505481565b60606001805461173b90613d4c565b80601f016020809104026020016040519081016040528092919081815260200182805461176790613d4c565b80156117b45780601f10611789576101008083540402835291602001916117b4565b820191906000526020600020905b81548152906001019060200180831161179757829003601f168201915b5050505050905090565b6000600c6000838152602001908152602001600020549050919050565b6117ed6117e6611bdb565b83836120e3565b5050565b6000600954905090565b61180c611806611bdb565b83611d17565b61184b576040517f08c379a00000000000000000000000000000000000000000000000000000000081526004016118429061378f565b60405180910390fd5b61185784848484612250565b50505050565b60095481565b606061186d6122ac565b6118b661187861071f565b604051806080016040528060438152602001614438604391396040516020016118a2929190613618565b6040516020818303038152906040526122e9565b6040516020016118c79291906135f4565b6040516020818303038152906040529050919050565b600b6020528160005260406000206020528060005260406000206000915091509054906101000a900460ff1681565b600d60205280600052604060002060009150905080600001805461192f90613d4c565b80601f016020809104026020016040519081016040528092919081815260200182805461195b90613d4c565b80156119a85780601f1061197d576101008083540402835291602001916119a8565b820191906000526020600020905b81548152906001019060200180831161198b57829003601f168201915b5050505050908060010180546119bd90613d4c565b80601f01602080910402602001604051908101604052809291908181526020018280546119e990613d4c565b8015611a365780601f10611a0b57610100808354040283529160200191611a36565b820191906000526020600020905b815481529060010190602001808311611a1957829003601f168201915b5050505050908060020154908060030154908060040160009054906101000a900473ffffffffffffffffffffffffffffffffffffffff16905085565b6000600560008473ffffffffffffffffffffffffffffffffffffffff1673ffffffffffffffffffffffffffffffffffffffff16815260200190815260200160002060008373ffffffffffffffffffffffffffffffffffffffff1673ffffffffffffffffffffffffffffffffffffffff16815260200190815260200160002060009054906101000a900460ff16905092915050565b60076020528060005260406000206000915054906101000a900460ff1681565b60007f01ffc9a7000000000000000000000000000000000000000000000000000000007bffffffffffffffffffffffffffffffffffffffffffffffffffffffff1916827bffffffffffffffffffffffffffffffffffffffffffffffffffffffff1916149050919050565b611b998161246e565b611bd8576040517f08c379a0000000000000000000000000000000000000000000000000000000008152600401611bcf906138cf565b60405180910390fd5b50565b600033905090565b816004600083815260200190815260200160002060006101000a81548173ffffffffffffffffffffffffffffffffffffffff021916908373ffffffffffffffffffffffffffffffffffffffff160217905550808273ffffffffffffffffffffffffffffffffffffffff16611c5683611076565b73ffffffffffffffffffffffffffffffffffffffff167f8c5be1e5ebec7d5bd14f71427d1e84f3dd0314c0f7b2291e5b200ac8c7c3b92560405160405180910390a45050565b611ca8336006546124af565b6001600654611cb79190613b6f565b6006819055506001600760003373ffffffffffffffffffffffffffffffffffffffff1673ffffffffffffffffffffffffffffffffffffffff16815260200190815260200160002060006101000a81548160ff021916908315150217905550565b600080611d2383611076565b90508073ffffffffffffffffffffffffffffffffffffffff168473ffffffffffffffffffffffffffffffffffffffff161480611d655750611d648185611a72565b5b80611da357508373ffffffffffffffffffffffffffffffffffffffff16611d8b84610a36565b73ffffffffffffffffffffffffffffffffffffffff16145b91505092915050565b8273ffffffffffffffffffffffffffffffffffffffff16611dcc82611076565b73ffffffffffffffffffffffffffffffffffffffff1614611e22576040517f08c379a0000000000000000000000000000000000000000000000000000000008152600401611e19906137ef565b60405180910390fd5b600073ffffffffffffffffffffffffffffffffffffffff168273ffffffffffffffffffffffffffffffffffffffff161415611e92576040517f08c379a0000000000000000000000000000000000000000000000000000000008152600401611e899061382f565b60405180910390fd5b611e9f83838360016124cd565b8273ffffffffffffffffffffffffffffffffffffffff16611ebf82611076565b73ffffffffffffffffffffffffffffffffffffffff1614611f15576040517f08c379a0000000000000000000000000000000000000000000000000000000008152600401611f0c906137ef565b60405180910390fd5b6004600082815260200190815260200160002060006101000a81549073ffffffffffffffffffffffffffffffffffffffff02191690556001600360008573ffffffffffffffffffffffffffffffffffffffff1673ffffffffffffffffffffffffffffffffffffffff168152602001908152602001600020600082825403925050819055506001600360008473ffffffffffffffffffffffffffffffffffffffff1673ffffffffffffffffffffffffffffffffffffffff16815260200190815260200160002060008282540192505081905550816002600083815260200190815260200160002060006101000a81548173ffffffffffffffffffffffffffffffffffffffff021916908373ffffffffffffffffffffffffffffffffffffffff160217905550808273ffffffffffffffffffffffffffffffffffffffff168473ffffffffffffffffffffffffffffffffffffffff167fddf252ad1be2c89b69c2b068fc378daa952ba7f163c4a11628f55a4df523b3ef60405160405180910390a46120a183838360016125f3565b505050565b60006002600083815260200190815260200160002060009054906101000a900473ffffffffffffffffffffffffffffffffffffffff169050919050565b8173ffffffffffffffffffffffffffffffffffffffff168373ffffffffffffffffffffffffffffffffffffffff161415612152576040517f08c379a00000000000000000000000000000000000000000000000000000000081526004016121499061384f565b60405180910390fd5b80600560008573ffffffffffffffffffffffffffffffffffffffff1673ffffffffffffffffffffffffffffffffffffffff16815260200190815260200160002060008473ffffffffffffffffffffffffffffffffffffffff1673ffffffffffffffffffffffffffffffffffffffff16815260200190815260200160002060006101000a81548160ff0219169083151502179055508173ffffffffffffffffffffffffffffffffffffffff168373ffffffffffffffffffffffffffffffffffffffff167f17307eab39ab6107e8899845ad3d59bd9653f200f220920489ca2b5937696c318360405161224391906136f1565b60405180910390a3505050565b61225b848484611dac565b612267848484846125f9565b6122a6576040517f08c379a000000000000000000000000000000000000000000000000000000000815260040161229d906137af565b60405180910390fd5b50505050565b60606040518060400160405280601d81526020017f646174613a6170706c69636174696f6e2f6a736f6e3b6261736536342c000000815250905090565b606060008251141561230c57604051806020016040528060008152509050612469565b600060405180606001604052806040815260200161447b604091399050600060036002855161233b9190613b6f565b6123459190613bc5565b60046123519190613bf6565b905060006020826123629190613b6f565b67ffffffffffffffff81111561237b5761237a613eb4565b5b6040519080825280601f01601f1916602001820160405280156123ad5781602001600182028036833780820191505090505b509050818152600183018586518101602084015b81831015612428576003830192508251603f8160121c1685015160f81b8252600182019150603f81600c1c1685015160f81b8252600182019150603f8160061c1685015160f81b8252600182019150603f811685015160f81b8252600182019150506123c1565b60038951066001811461244257600281146124525761245d565b613d3d60f01b600283035261245d565b603d60f81b60018303525b50505050508093505050505b919050565b60008073ffffffffffffffffffffffffffffffffffffffff16612490836120a6565b73ffffffffffffffffffffffffffffffffffffffff1614159050919050565b6124c9828260405180602001604052806000815250612790565b5050565b60018111156125ed57600073ffffffffffffffffffffffffffffffffffffffff168473ffffffffffffffffffffffffffffffffffffffff16146125615780600360008673ffffffffffffffffffffffffffffffffffffffff1673ffffffffffffffffffffffffffffffffffffffff16815260200190815260200160002060008282546125599190613c50565b925050819055505b600073ffffffffffffffffffffffffffffffffffffffff168373ffffffffffffffffffffffffffffffffffffffff16146125ec5780600360008573ffffffffffffffffffffffffffffffffffffffff1673ffffffffffffffffffffffffffffffffffffffff16815260200190815260200160002060008282546125e49190613b6f565b925050819055505b5b50505050565b50505050565b600061261a8473ffffffffffffffffffffffffffffffffffffffff166127eb565b15612783578373ffffffffffffffffffffffffffffffffffffffff1663150b7a02612643611bdb565b8786866040518563ffffffff1660e01b81526004016126659493929190613683565b602060405180830381600087803b15801561267f57600080fd5b505af19250505080156126b057506040513d601f19601f820116820180604052508101906126ad9190612fbd565b60015b612733573d80600081146126e0576040519150601f19603f3d011682016040523d82523d6000602084013e6126e5565b606091505b5060008151141561272b576040517f08c379a0000000000000000000000000000000000000000000000000000000008152600401612722906137af565b60405180910390fd5b805181602001fd5b63150b7a0260e01b7bffffffffffffffffffffffffffffffffffffffffffffffffffffffff1916817bffffffffffffffffffffffffffffffffffffffffffffffffffffffff191614915050612788565b600190505b949350505050565b61279a838361280e565b6127a760008484846125f9565b6127e6576040517f08c379a00000000000000000000000000000000000000000000000000000000081526004016127dd906137af565b60405180910390fd5b505050565b6000808273ffffffffffffffffffffffffffffffffffffffff163b119050919050565b600073ffffffffffffffffffffffffffffffffffffffff168273ffffffffffffffffffffffffffffffffffffffff16141561287e576040517f08c379a0000000000000000000000000000000000000000000000000000000008152600401612875906138af565b60405180910390fd5b6128878161246e565b156128c7576040517f08c379a00000000000000000000000000000000000000000000000000000000081526004016128be9061380f565b60405180910390fd5b6128d56000838360016124cd565b6128de8161246e565b1561291e576040517f08c379a00000000000000000000000000000000000000000000000000000000081526004016129159061380f565b60405180910390fd5b6001600360008473ffffffffffffffffffffffffffffffffffffffff1673ffffffffffffffffffffffffffffffffffffffff16815260200190815260200160002060008282540192505081905550816002600083815260200190815260200160002060006101000a81548173ffffffffffffffffffffffffffffffffffffffff021916908373ffffffffffffffffffffffffffffffffffffffff160217905550808273ffffffffffffffffffffffffffffffffffffffff16600073ffffffffffffffffffffffffffffffffffffffff167fddf252ad1be2c89b69c2b068fc378daa952ba7f163c4a11628f55a4df523b3ef60405160405180910390a4612a286000838360016125f3565b5050565b828054612a3890613d4c565b90600052602060002090601f016020900481019282612a5a5760008555612aa8565b82601f10612a6b5780548555612aa8565b82800160010185558215612aa857600052602060002091601f016020900482015b82811115612aa7578254825591600101919060010190612a8c565b5b509050612ab59190612c67565b5090565b828054828255906000526020600020908101928215612afa5760005260206000209182015b82811115612af9578254825591600101919060010190612ade565b5b509050612b079190612c67565b5090565b6040518060c0016040528060608152602001606081526020016000815260200160008152602001600073ffffffffffffffffffffffffffffffffffffffff168152602001606081525090565b828054612b6390613d4c565b90600052602060002090601f016020900481019282612b855760008555612bcc565b82601f10612b9e57805160ff1916838001178555612bcc565b82800160010185558215612bcc579182015b82811115612bcb578251825591602001919060010190612bb0565b5b509050612bd99190612c67565b5090565b828054828255906000526020600020908101928215612c56579160200282015b82811115612c555782518260006101000a81548173ffffffffffffffffffffffffffffffffffffffff021916908373ffffffffffffffffffffffffffffffffffffffff16021790555091602001919060010190612bfd565b5b509050612c639190612c67565b5090565b5b80821115612c80576000816000905550600101612c68565b5090565b6000612c97612c9284613a47565b613a22565b905082815260208101848484011115612cb357612cb2613ee8565b5b612cbe848285613d0a565b509392505050565b6000612cd9612cd484613a78565b613a22565b905082815260208101848484011115612cf557612cf4613ee8565b5b612d00848285613d0a565b509392505050565b600081359050612d17816143db565b92915050565b600081359050612d2c816143f2565b92915050565b600081359050612d4181614409565b92915050565b600081519050612d5681614409565b92915050565b600082601f830112612d7157612d70613ee3565b5b8135612d81848260208601612c84565b91505092915050565b600082601f830112612d9f57612d9e613ee3565b5b8135612daf848260208601612cc6565b91505092915050565b600081359050612dc781614420565b92915050565b600060208284031215612de357612de2613ef2565b5b6000612df184828501612d08565b91505092915050565b60008060408385031215612e1157612e10613ef2565b5b6000612e1f85828601612d08565b9250506020612e3085828601612d08565b9150509250929050565b600080600060608486031215612e5357612e52613ef2565b5b6000612e6186828701612d08565b9350506020612e7286828701612d08565b9250506040612e8386828701612db8565b9150509250925092565b60008060008060808587031215612ea757612ea6613ef2565b5b6000612eb587828801612d08565b9450506020612ec687828801612d08565b9350506040612ed787828801612db8565b925050606085013567ffffffffffffffff811115612ef857612ef7613eed565b5b612f0487828801612d5c565b91505092959194509250565b60008060408385031215612f2757612f26613ef2565b5b6000612f3585828601612d08565b9250506020612f4685828601612d1d565b9150509250929050565b60008060408385031215612f6757612f66613ef2565b5b6000612f7585828601612d08565b9250506020612f8685828601612db8565b9150509250929050565b600060208284031215612fa657612fa5613ef2565b5b6000612fb484828501612d32565b91505092915050565b600060208284031215612fd357612fd2613ef2565b5b6000612fe184828501612d47565b91505092915050565b6000806040838503121561300157613000613ef2565b5b600083013567ffffffffffffffff81111561301f5761301e613eed565b5b61302b85828601612d8a565b925050602083013567ffffffffffffffff81111561304c5761304b613eed565b5b61305885828601612d8a565b9150509250929050565b60006020828403121561307857613077613ef2565b5b600061308684828501612db8565b91505092915050565b600061309b83836130bb565b60208301905092915050565b60006130b3838361353f565b905092915050565b6130c481613c84565b82525050565b6130d381613c84565b82525050565b60006130e482613ac9565b6130ee8185613b0f565b93506130f983613aa9565b8060005b8381101561312a578151613111888261308f565b975061311c83613af5565b9250506001810190506130fd565b5085935050505092915050565b600061314282613ad4565b61314c8185613b20565b93508360208202850161315e85613ab9565b8060005b8581101561319a578484038952815161317b85826130a7565b945061318683613b02565b925060208a01995050600181019050613162565b50829750879550505050505092915050565b6131b581613c96565b82525050565b60006131c682613adf565b6131d08185613b31565b93506131e0818560208601613d19565b6131e981613ef7565b840191505092915050565b6131fd81613cf8565b82525050565b600061320e82613aea565b6132188185613b42565b9350613228818560208601613d19565b61323181613ef7565b840191505092915050565b600061324782613aea565b6132518185613b53565b9350613261818560208601613d19565b61326a81613ef7565b840191505092915050565b600061328082613aea565b61328a8185613b64565b935061329a818560208601613d19565b80840191505092915050565b60006132b3602d83613b53565b91506132be82613f08565b604082019050919050565b60006132d6600983613b64565b91506132e182613f57565b600982019050919050565b60006132f9603283613b53565b915061330482613f80565b604082019050919050565b600061331c600c83613b53565b915061332782613fcf565b602082019050919050565b600061333f602583613b53565b915061334a82613ff8565b604082019050919050565b6000613362601c83613b53565b915061336d82614047565b602082019050919050565b6000613385604d83613b64565b915061339082614070565b604d82019050919050565b60006133a8602483613b53565b91506133b3826140e5565b604082019050919050565b60006133cb601983613b53565b91506133d682614134565b602082019050919050565b60006133ee604183613b64565b91506133f98261415d565b604182019050919050565b6000613411602983613b53565b915061341c826141d2565b604082019050919050565b6000613434600283613b64565b915061343f82614221565b600282019050919050565b6000613457601983613b53565b91506134628261424a565b602082019050919050565b600061347a602083613b53565b915061348582614273565b602082019050919050565b600061349d601883613b53565b91506134a88261429c565b602082019050919050565b60006134c0602183613b53565b91506134cb826142c5565b604082019050919050565b60006134e3603d83613b53565b91506134ee82614314565b604082019050919050565b6000613506602183613b53565b915061351182614363565b604082019050919050565b6000613529601d83613b53565b9150613534826143b2565b602082019050919050565b600060c083016000830151848203600086015261355c8282613203565b915050602083015184820360208601526135768282613203565b915050604083015161358b60408601826135d6565b50606083015161359e60608601826135d6565b5060808301516135b160808601826130bb565b5060a083015184820360a08601526135c982826130d9565b9150508091505092915050565b6135df81613cee565b82525050565b6135ee81613cee565b82525050565b60006136008285613275565b915061360c8284613275565b91508190509392505050565b6000613623826132c9565b915061362f8285613275565b915061363a82613378565b9150613645826133e1565b91506136518284613275565b915061365c82613427565b91508190509392505050565b600060208201905061367d60008301846130ca565b92915050565b600060808201905061369860008301876130ca565b6136a560208301866130ca565b6136b260408301856135e5565b81810360608301526136c481846131bb565b905095945050505050565b600060208201905081810360008301526136e98184613137565b905092915050565b600060208201905061370660008301846131ac565b92915050565b60006020820190508181036000830152613726818461323c565b905092915050565b600060a0820190508181036000830152613748818861323c565b9050818103602083015261375c818761323c565b905061376b60408301866135e5565b61377860608301856135e5565b61378560808301846130ca565b9695505050505050565b600060208201905081810360008301526137a8816132a6565b9050919050565b600060208201905081810360008301526137c8816132ec565b9050919050565b600060208201905081810360008301526137e88161330f565b9050919050565b6000602082019050818103600083015261380881613332565b9050919050565b6000602082019050818103600083015261382881613355565b9050919050565b600060208201905081810360008301526138488161339b565b9050919050565b60006020820190508181036000830152613868816133be565b9050919050565b6000602082019050818103600083015261388881613404565b9050919050565b600060208201905081810360008301526138a88161344a565b9050919050565b600060208201905081810360008301526138c88161346d565b9050919050565b600060208201905081810360008301526138e881613490565b9050919050565b60006020820190508181036000830152613908816134b3565b9050919050565b60006020820190508181036000830152613928816134d6565b9050919050565b60006020820190508181036000830152613948816134f9565b9050919050565b600060208201905081810360008301526139688161351c565b9050919050565b600060208201905061398460008301846135e5565b92915050565b600060c08201905061399f60008301896135e5565b81810360208301526139b1818861323c565b905081810360408301526139c5818761323c565b90506139d460608301866131f4565b6139e160808301856131f4565b6139ee60a08301846130ca565b979650505050505050565b6000604082019050613a0e60008301856135e5565b613a1b60208301846135e5565b9392505050565b6000613a2c613a3d565b9050613a388282613d7e565b919050565b6000604051905090565b600067ffffffffffffffff821115613a6257613a61613eb4565b5b613a6b82613ef7565b9050602081019050919050565b600067ffffffffffffffff821115613a9357613a92613eb4565b5b613a9c82613ef7565b9050602081019050919050565b6000819050602082019050919050565b6000819050602082019050919050565b600081519050919050565b600081519050919050565b600081519050919050565b600081519050919050565b6000602082019050919050565b6000602082019050919050565b600082825260208201905092915050565b600082825260208201905092915050565b600082825260208201905092915050565b600082825260208201905092915050565b600082825260208201905092915050565b600081905092915050565b6000613b7a82613cee565b9150613b8583613cee565b9250827fffffffffffffffffffffffffffffffffffffffffffffffffffffffffffffffff03821115613bba57613bb9613df8565b5b828201905092915050565b6000613bd082613cee565b9150613bdb83613cee565b925082613beb57613bea613e27565b5b828204905092915050565b6000613c0182613cee565b9150613c0c83613cee565b9250817fffffffffffffffffffffffffffffffffffffffffffffffffffffffffffffffff0483118215151615613c4557613c44613df8565b5b828202905092915050565b6000613c5b82613cee565b9150613c6683613cee565b925082821015613c7957613c78613df8565b5b828203905092915050565b6000613c8f82613cce565b9050919050565b60008115159050919050565b60007fffffffff0000000000000000000000000000000000000000000000000000000082169050919050565b600073ffffffffffffffffffffffffffffffffffffffff82169050919050565b6000819050919050565b6000613d0382613cee565b9050919050565b82818337600083830152505050565b60005b83811015613d37578082015181840152602081019050613d1c565b83811115613d46576000848401525b50505050565b60006002820490506001821680613d6457607f821691505b60208210811415613d7857613d77613e56565b5b50919050565b613d8782613ef7565b810181811067ffffffffffffffff82111715613da657613da5613eb4565b5b80604052505050565b6000613dba82613cee565b91507fffffffffffffffffffffffffffffffffffffffffffffffffffffffffffffffff821415613ded57613dec613df8565b5b600182019050919050565b7f4e487b7100000000000000000000000000000000000000000000000000000000600052601160045260246000fd5b7f4e487b7100000000000000000000000000000000000000000000000000000000600052601260045260246000fd5b7f4e487b7100000000000000000000000000000000000000000000000000000000600052602260045260246000fd5b7f4e487b7100000000000000000000000000000000000000000000000000000000600052603260045260246000fd5b7f4e487b7100000000000000000000000000000000000000000000000000000000600052604160045260246000fd5b600080fd5b600080fd5b600080fd5b600080fd5b6000601f19601f8301169050919050565b7f4552433732313a2063616c6c6572206973206e6f7420746f6b656e206f776e6560008201527f72206f7220617070726f76656400000000000000000000000000000000000000602082015250565b7f7b226e616d65223a220000000000000000000000000000000000000000000000600082015250565b7f4552433732313a207472616e7366657220746f206e6f6e20455243373231526560008201527f63656976657220696d706c656d656e7465720000000000000000000000000000602082015250565b7f57726f6e672076616c7565210000000000000000000000000000000000000000600082015250565b7f4552433732313a207472616e736665722066726f6d20696e636f72726563742060008201527f6f776e6572000000000000000000000000000000000000000000000000000000602082015250565b7f4552433732313a20746f6b656e20616c7265616479206d696e74656400000000600082015250565b7f222c20226465736372697074696f6e223a22596f75206361707475726564207460008201527f686973204e46542061732070617274206f662074686520656475636174696f6e60208201527f616c2053747265616d21222c2000000000000000000000000000000000000000604082015250565b7f4552433732313a207472616e7366657220746f20746865207a65726f2061646460008201527f7265737300000000000000000000000000000000000000000000000000000000602082015250565b7f4552433732313a20617070726f766520746f2063616c6c657200000000000000600082015250565b7f2261747472696275746573223a205b7b2274726169745f74797065223a20227360008201527f6b696c6c73222c202276616c7565223a203130307d5d2c2022696d616765223a60208201527f2200000000000000000000000000000000000000000000000000000000000000604082015250565b7f4552433732313a2061646472657373207a65726f206973206e6f74206120766160008201527f6c6964206f776e65720000000000000000000000000000000000000000000000602082015250565b7f227d000000000000000000000000000000000000000000000000000000000000600082015250565b7f736f727279207765206172656e74207468617420636c6f736500000000000000600082015250565b7f4552433732313a206d696e7420746f20746865207a65726f2061646472657373600082015250565b7f4552433732313a20696e76616c696420746f6b656e2049440000000000000000600082015250565b7f4552433732313a20617070726f76616c20746f2063757272656e74206f776e6560008201527f7200000000000000000000000000000000000000000000000000000000000000602082015250565b7f4552433732313a20617070726f76652063616c6c6572206973206e6f7420746f60008201527f6b656e206f776e6572206f7220617070726f76656420666f7220616c6c000000602082015250565b7f596f75206861766520616c7265616479206c696b65642074686973207669646560008201527f6f00000000000000000000000000000000000000000000000000000000000000602082015250565b7f596f75206d757374206c696b652074686520766964656f206669727374000000600082015250565b6143e481613c84565b81146143ef57600080fd5b50565b6143fb81613c96565b811461440657600080fd5b50565b61441281613ca2565b811461441d57600080fd5b50565b61442981613cee565b811461443457600080fd5b5056fe68747470733a2f2f697066732e696f2f697066732f516d5565585636335676725958774436356774457a365746434a786f363250484a3570437569664336716d3675554142434445464748494a4b4c4d4e4f505152535455565758595a6162636465666768696a6b6c6d6e6f707172737475767778797a303132333435363738392b2fa2646970667358221220b62a29c6ef1ea8769f500713518b948b4ef797f426ee6535d57949be8846fecd64736f6c63430008070033",
    "linkReferences": {},
    "deployedLinkReferences": {}
}